:1000000045C000004BC0000049C0000047C00000D0
:1000100045C0000043C0000041C000003FC00000D8
:100020003DC000003BC0000039C0000037C00000E8
:1000300035C0000033C0000031C000002FC00000F8
:100040002DC000002BC0000029C0000027C0000008
:1000500025C0000023C0000021C000001FC0000018
:100060001DC000001BC0000019C0000017C0000028
:1000700015C0000013C0000011C000000FC0000038
:100080000DC000000BC0000009C0000011241FBEFD
:10009000CFEFD0E1DEBFCDBF02D041C0B1CF8FEFF7
:1000A00087BB18BA14BA85BB85B5886085BD85B590
:1000B000806185BD85B5816085BD9B99FECF13BCF0
:1000C00087EA91E60197F1F700C0000082E383BD63
:1000D00087EA91E60197F1F700C0000084E683BD4E
:1000E00087EA91E60197F1F700C0000086E983BD39
:1000F00087EA91E60197F1F700C0000088EC83BD24
:1001000087EA91E60197F1F700C000008AEF83BD0E
:1001100087EA91E60197F1F700C00000CECFF8948E
:02012000FFCF0F
:00000001FF
